X003005900000000000029092021ALIBABA  ORPORATION - INTERNATIONAL                                                                                     009933000000
L123456789112345678912345678910      LL  1234567891Pabandeep Kaur Kang 1234567891  ZAP Pandas  GOLD10      ZAP KKK Pumpkin ZAPo 111111111111111111 2909202100000
L1234567891123456789123456789        LL  1234567891Mata Phillip        1234567891  ZAP Pandas  GOLD10      ZAP KKK Pumpkin ZAPo 111111111111111111 2909202100000
L12345678911234567891234567891       LL  1234567891Hello World Center  1234567891  ZAP Pandas  GOLD10      ZAP KKK Pumpkin ZAPo 111111111111111111 2909202100000
L123456789112345678912345678         LL  1234567891Java Dudes Cafe     1234567891  ZAP Pandas  GOLD10      ZAP KKK Pumpkin ZAPo 111111111111111111 2909202100000
L1234567891123456789123456789108     LL  1234567891Paul David Peterson 1234567891  ZAP Pandas  GOLD10      ZAP KKK Pumpkin ZAPo 111111111111111111 2909202100000
L1234567891123456789123456789106     LL  1234567891Tristram J Keepa    1234567891  ZAP Pandas  GOLD10      ZAP KKK Pumpkin ZAPo 111111111111111111 2909202100000
T6     8888888      1672.54        0000000000000001672.54        C1672.54        000000000000000C